:107800000C943E3C0C945B3C0C945B3C0C945B3CB9
:107810000C945B3C0C945B3C0C945B3C0C945B3C8C
:107820000C945B3C0C945B3C0C945B3C0C945B3C7C
:107830000C945B3C0C945B3C0C945B3C0C945B3C6C
:107840000C945B3C0C945B3C0C945B3C0C945B3C5C
:107850000C945B3C0C945B3C0C945B3C0C945B3C4C
:107860000C945B3C0C945B3C0C945B3C0C945B3C3C
:107870000C945B3C0C945B3C0C945B3C11241FBE51
:10788000CFEFD8E0DEBFCDBF11E0A0E0B1E0ECEA81
:10789000FFE702C005900D92A230B107D9F712E0C0
:1078A000A2E0B1E001C01D92AD30B107E1F70E9446
:1078B000743D0C94D43F0C94003C909102019130A3
:1078C00019F0923041F008959091C00095FFFCCFDF
:1078D0008093C60008959091C80095FFFCCF8093D7
:1078E000CE0008951F93982F95959595959595950C
:1078F000905D182F1F701A304CF4105D892F0E9474
:107900005D3C812F0E945D3C1F910895195A892F7B
:107910000E945D3C812F0E945D3C1F910895EF9273
:10792000FF920F931F9380910201813069F18230A1
:1079300031F080E01F910F91FF90EF900895EE24B9
:10794000FF2487018091C80087FD17C00894E11CBF
:10795000F11C011D111D81E2E81681EAF80687E09D
:10796000080780E0180770F3E0910401F091050129
:1079700009958091C80087FFE9CF8091CE001F91C3
:107980000F91FF90EF900895EE24FF2487018091DE
:10799000C00087FD17C00894E11CF11C011D111DDA
:1079A00081E2E81681EAF80687E0080780E0180718
:1079B00070F3E0910401F091050109958091C000F8
:1079C00087FFE9CF8091C6001F910F91FF90EF9044
:1079D00008951F930E948F3C182F0E945D3C113622
:1079E00034F410330CF01053812F1F910895175564
:1079F000812F1F9108951F930E94E93C182F0E9428
:107A0000E93C1295107F810F1F910895209102018A
:107A1000882339F0213031F0223061F08150882301
:107A2000C9F708959091C00097FFFCCF9091C600D0
:107A30008150F5CF9091C80097FFFCCF9091CE0078
:107A40008150EDCF1F93182F0E948F3C803281F020
:107A5000809103018F5F80930301853011F01F91A6
:107A60000895E0910401F091050109951F91089591
:107A700084E10E945D3C812F0E945D3C80E10E9478
:107A80005D3CEDCF0E948F3C803271F0809103010C
:107A90008F5F80930301853009F00895E091040120
:107AA000F09105010995089584E10E945D3C80E113
:107AB0000E945D3C089515C02F9A2FEF30E742E0F9
:107AC000215030404040E1F700C000002F982FEFD8
:107AD00030E742E0215030404040E1F700C0000074
:107AE0008150882349F70895EF92FF920F931F93D7
:107AF000CF93DF93000081E08093020182E08093C6
:107B0000C00080E18093C4001092C50086E080939D
:107B1000C20088E18093C100279A81E00E945B3D0A
:107B20000E948F3C8033B1F18133B9F1803409F484
:107B300054C0813409F45AC0823409F469C08534D0
:107B400009F46CC0803531F1823521F1813511F1B4
:107B5000853509F469C0863509F471C0843609F4A5
:107B60007AC0843709F4E1C0853709F439C1863712
:107B700009F44AC0809103018F5F8093030185302F
:107B800079F6E0910401F091050109950E948F3C7E
:107B9000803351F60E94423DC3CF0E948F3C803219
:107BA00049F784E10E945D3C81E40E945D3C86E5EA
:107BB0000E945D3C82E50E945D3C80E20E945D3C4B
:107BC00089E40E945D3C83E50E945D3C80E50E9463
:107BD0005D3C80E10E945D3CA3CF0E948F3C8638D3
:107BE000C8F20E948F3C0E94423D9ACF0E948F3C77
:107BF000803809F40EC1813809F40FC1823809F4C4
:107C000010C1883909F401C180E00E94223D88CF6B
:107C100084E10E94063D0E94423D82CF85E00E94A1
:107C2000063D0E94423D7CCF0E948F3C809306011E
:107C30000E948F3C809307010E94423D71CF0E94B9
:107C40008F3C803309F4F1C083E00E94063D80E060
:107C50000E94223D65CF0E948F3C809309020E94C2
:107C60008F3C8093080280910C028E7F80930C02DF
:107C70000E948F3C853409F4E9C0809108029091FC
:107C800009020097A1F068E0E62E61E0F62E00E020
:107C900010E00E948F3CF70181937F010F5F1F4F1F
:107CA00080910802909109020817190790F30E9429
:107CB0008F3C803209F05ECF80910C0280FFE5C0DE
:107CC0008091060190910701880F991F90930701F9
:107CD0008093060120910802309109022115310597
:107CE000E9F048E0E42E41E0F42E00E010E0F70176
:107CF00061917F010E94C63F80910601909107012A
:107D0000019690930701809306010F5F1F4F20910A
:107D10000802309109020217130748F384E10E9418
:107D20005D3C80E10E945D3CFBCE0E948F3C8093D5
:107D300009020E948F3C8093080280910601909175
:107D4000070197FD9CC020910C022D7F20930C020F
:107D5000880F991F90930701809306010E948F3C22
:107D6000853409F486C080910C028E7F80930C02CA
:107D70000E948F3C803209F0D3CE84E10E945D3CAA
:107D8000209108023091090221153105D1F100E05E
:107D900010E080910601909107010CC041FF5CC08A
:107DA000019690930701809306010F5F1F4F021702
:107DB000130738F540910C0240FFF0CF0E94BE3F00
:107DC0000E945D3C8091060190910701019690937D
:107DD0000701809306012091080230910902E5CF46
:107DE0000E948F3C803209F0C5CE84E10E945D3C48
:107DF0008EE10E945D3C85E90E945D3C88E00E9426
:107E00005D3C80E10E945D3C8BCE83E00E94223D80
:107E100087CE82E00E94223D83CE81E00E94223DF7
:107E20007FCE80E10E94223D7BCE0E948F3C0E944B
:107E30008F3C082F0E948F3C002309F497C001302B
:107E400009F498C088E00E94223D6ACE80910C021D
:107E5000816080930C0211CFFC0184910E945D3CF3
:107E6000209108023091090280910601909107014A
:107E700097CF80910C02816080930C0279CF209182
:107E80000C02226020930C0263CF80910701880FBF
:107E9000880B817080930B028091060190910701FD
:107EA000880F991F90930701809306018091080223
:107EB00080FF09C080910802909109020196909379
:107EC000090280930802F894F999FECF1127E091F6
:107ED0000601F0910701C8E0D1E08091080290917D
:107EE0000902103091F40091570001700130D9F36C
:107EF00003E000935700E8950091570001700130AE
:107F0000D9F301E100935700E89509901990009189
:107F1000570001700130D9F301E000935700E89554
:107F20001395103498F0112700915700017001301B
:107F3000D9F305E000935700E895009157000170D0
:107F40000130D9F301E100935700E895329602978A
:107F500009F0C7CF103011F00296E5CF112484E16B
:107F60000E945D3C80E10E945D3CDACD8EE10E9482
:107F7000223DD6CD85E90E94223DD2CDF999FECF92
:107F800092BD81BDF89A992780B50895262FF99959
:107F9000FECF1FBA92BD81BD20BD0FB6F894FA9AEC
:0C7FA000F99A0FBE01960895F894FFCFE7
:027FAC00800053
:040000030000780081
:00000001FF
